:020000040800F2
:1000000080060020CD010008D5010008D7010008B6
:10001000D9010008DB010008DD0100080000000034
:10002000000000000000000000000000DF010008E8
:10003000E101000800000000E3010008E5010008FC
:10004000E7010008E7010008E7010008E7010008F0
:10005000E7010008E7010008E7010008E7010008E0
:10006000E7010008E7010008E7010008E7010008D0
:10007000E7010008E7010008E7010008E7010008C0
:10008000E7010008E7010008E7010008E7010008B0
:10009000E7010008E7010008E7010008E7010008A0
:1000A000E7010008E7010008E7010008E701000890
:1000B000E7010008E7010008E7010008E701000880
:1000C000E7010008E7010008E7010008E701000870
:1000D000E7010008E7010008E7010008E701000860
:1000E000E7010008E7010008E7010008E701000850
:1000F000E7010008E7010008E7010008E701000840
:10010000E7010008E7010008E7010008E70100082F
:10011000E7010008E7010008E7010008E70100081F
:10012000E7010008E701000855030008E70100089F
:1001300000F002F800F03AF80AA090E8000C8244BF
:100140008344AAF10107DA4501D100F02FF8AFF29C
:10015000090EBAE80F0013F0010F18BFFB1A43F0A5
:1001600001031847581F0400781F0400103A24BFE9
:1001700078C878C1FAD8520724BF30C830C144BF0C
:1001800004680C607047000000230024002500264E
:10019000103A28BF78C1FBD8520728BF30C148BFEA
:1001A0000B6070471FB51FBD10B510BD00F031F8D2
:1001B0001146FFF7F7FF00F007FD00F04FF803B41A
:1001C000FFF7F2FF03BC00F057F800000948804732
:1001D00009480047FEE7FEE7FEE7FEE7FEE7FEE729
:1001E000FEE7FEE7FEE7FEE704480549054A064B41
:1001F000704700004D0A000831010008800000200F
:100200008006002080020020800200207047704796
:100210007047754600F02CF8AE4605006946534617
:1002200020F00700854618B020B5FFF7DDFFBDE8D8
:1002300020404FF000064FF000074FF000084FF04D
:10024000000B21F00701AC46ACE8C009ACE8C009DE
:10025000ACE8C009ACE8C0098D46704710B504464B
:10026000AFF300802046BDE81040FFF7A8BF0000B4
:10027000004870472000002001491820ABBEFEE76F
:10028000260002007047000039B1084A12680123B5
:1002900083401A43054B1A6006E0044A12680123A2
:1002A00083409A43014B1A6070470000007400407D
:1002B0001FB50121480700F00BFB684600F044F829
:1002C0000020019002200390242000906946002025
:1002D00000F020F801210020FFF7D6FF01210020C7
:1002E00000F002F81FBD000041B1094A12684FF446
:1002F000805383401A43064B1A6007E0044A126891
:100300004FF4805383409A43014B1A6070470000BA
:100310000074004030B5002200230A4C226840F6E9
:10032000FE748440A243D1E900452C438D682C43E0
:10033000CD6844EA050303FA00F42243014C22602D
:1003400030BD000000740040002101604160816008
:10035000C160704710B50124114800F033F9F0B1C5
:10036000104800F035F80E4800F024F800210E483F
:1003700000F03CF80D4A32F814204FF6FF7303EA00
:1003800082010B4A52F8240000F03CF80121064893
:1003900000F02CF8601CC4B2052C00DB002410BD5A
:1003A0000002001000010010300402401400002080
:1003B0000000002000F0805111B10349086001E005
:1003C00002494860704700000404024000000240F7
:1003D00000F0805111B10349086001E00249486012
:1003E00070470000040402400000024021B102688E
:1003F00042F00102026004E002684FF6FE731A4008
:100400000260704730B58BB004460D4601210220D2
:1004100000F04EFA134800F02BF8684600F00FF990
:100420001020029003950020049080200590002069
:10043000069007904FF44050099000200A900890D1
:100440000948009001946946064800F0DAF8074828
:10045000FFF7BEFF01220221024800F0C9F80BB0ED
:1004600030BD000030040240107400400002001053
:1004700001684FF6FE721140016000210160416089
:100480008160C1604B49884208D14A4908394968AE
:1004900041F00F01474A083A51608AE0454914315A
:1004A000884208D143490839496841F0F001414A7E
:1004B000083A51607DE03F492831884208D13D49E2
:1004C0000839496841F470613A4A083A516070E06D
:1004D00038493C31884208D136490839496841F4E5
:1004E0007041344A083A516063E0324950318842E1
:1004F00008D130490839496841F470212D4A083A39
:10050000516056E02B496431884208D129490839A5
:10051000496841F47001274A083A516049E0254989
:100520007831884208D123490839496841F070611F
:10053000204A083A51603CE01F49884206D1011F19
:10054000096841F00F01021F116032E01A491431AD
:10055000884208D11849091F096841F0F001164A7C
:10056000121F116025E014492831884208D1124930
:10057000091F096841F470610F4A121F116018E0E9
:100580000D493C31884208D10B49091F096841F4E3
:100590007041094A121F11600BE00749503188422F
:1005A00007D10549091F096841F47021024A121F49
:1005B0001160704708000240080402400146486884
:1005C00080B2704701460020002201F0805313B131
:1005D000054B1A6801E0054B1A6802EA01030BB1EA
:1005E000012000E0002070470004024000000240AB
:1005F0001AB103680B43036002E003688B43036096
:10060000704710B50022026847F6F0739A430C6AEF
:100610008B6823430C6923434C6923438C69234330
:10062000CC6923434C6A23438C6A23431A430260F8
:10063000CB6843600B6883604B68C36010BD0021CA
:10064000016041608160C160016141618161C1619E
:10065000016241628162704708B50121042000F007
:1006600047F900208DF8030003208DF802001020C8
:10067000ADF8000010210F4800F0ABF869460D48B6
:1006800000F01CF80121402000F032F94FF6FF7015
:10069000ADF8000010208DF8030001208DF8020055
:1006A0006946054800F00AF84FF6FF71024800F06D
:1006B00090F808BD00080140001801402DE9F04104
:1006C000024600250026002000230024002791F880
:1006D00003C00CF00F0591F803C00CF0100CBCF136
:1006E000000F03D091F802C04CEA050591F800C054
:1006F000BCF1000F31D0146800202BE04FF0010C4A
:100700000CFA00F3B1F800C00CEA03069E4220D1B7
:1007100083004FF00F0C0CFA03F7BC4305FA03FCFF
:100720004CEA040491F803C0BCF1280F06D14FF045
:10073000010C0CFA00FCC2F814C00AE091F803C0E6
:10074000BCF1480F05D14FF0010C0CFA00FCC2F8C7
:1007500010C0401C0828D1D31460B1F800C0BCF10F
:10076000FF0F34DD546800202EE000F1080C4FF03C
:10077000010808FA0CF3B1F800C00CEA03069E4227
:1007800021D183004FF00F0C0CFA03F7BC4305FA9C
:1007900003FC4CEA040491F803C0BCF1280F05D116
:1007A00000F1080C08FA0CF8C2F8148091F803C0A4
:1007B000BCF1480F07D100F1080C4FF0010808FA0E
:1007C0000CF8C2F81080401C0828CED35460BDE855
:1007D000F08101617047C1607047000010B5FFF7FC
:1007E0003BFF00F0A1F800F06DF9FFF761FD4EF658
:1007F00060210348FFF706FE00F004F810BD00007A
:100800005C0C000808B54FF4C06000F047F83A20CF
:100810008DF8000001208DF801008DF802008DF8A0
:100820000300684600F002F808BD000070B5002122
:1008300000230F22C47804B3154C246804F4E06448
:10084000C4F5E064210AC1F10403CA40447804FA03
:1008500003F184781440214309010E4C0678A15518
:10086000047804F01F050124AC4005786D11AD003B
:1008700005F1E025C5F8004109E0047804F01F0502
:100880000124AC40044D0678761145F8264070BD31
:100890000CED00E000E400E080E100E002490143EB
:1008A000024A1160704700000000FA050CED00E0FC
:1008B00029B1064A52690243044B5A6104E0034AD3
:1008C00052698243014B5A61704700000010024098
:1008D00029B1064AD2690243044BDA6104E0034AB3
:1008E000D2698243014BDA61704700000010024078
:1008F00029B1064A92690243044B9A6104E0034A13
:1009000092698243014B9A617047000000100240D7
:1009100001460020034A506820F0F0000843506070
:10092000704700000010024010B50020FFF7F0FFF4
:100930006FF0040000F076F810BD10B500F002F87A
:1009400010BD00000CB500200190009033480068F5
:1009500040F480303149086000BF3048006800F43E
:10096000003000900198401C0190009818B901983F
:10097000B0F5A06FF1D12948006800F4003010B143
:100980000120009001E0002000900098012843D150
:100990002348006840F010002149086008460068BC
:1009A00020F0030008600846006840F0020008607C
:1009B0001A48406819494860084640684860084637
:1009C000406840F4806048600846406820F47C102D
:1009D00048600846406840F4E810486008460068EF
:1009E00040F08070086000BF0C48006800F00070A4
:1009F0000028F9D00948406820F003000749486002
:100A00000846406840F00200486000BF0348406864
:100A100000F00C000828F9D10CBD000000100240C5
:100A200000200240042808D14FF0E021096941F07C
:100A300004014FF0E022116107E04FF0E021096965
:100A400021F004014FF0E0221161704710B5134806
:100A5000006840F0010011490860084640681049EC
:100A600008400E494860084600680E4908400B4996
:100A700008600846006820F4802008600846406846
:100A800020F4FE0048604FF41F008860FFF755FF18
:100A90004FF000600449086010BD000000100240E3
:100AA0000000FFF8FFFFF6FE08ED00E021B102882C
:100AB00042F00102028004E002884FF6FE731A4001
:100AC000028070470EB501210846FFF701FF684616
:100AD00000F070F80020ADF80000ADF80600ADF8A9
:100AE000020041F61F40ADF8040069464FF0804017
:100AF00000F00EF82021480600F001F80EBD8288B3
:100B00004FF68F731A40828082880A438280704732
:100B1000002202881D4B98420ED01D4B98420BD0EC
:100B2000B0F1804F08D01B4B984205D01A4B984229
:100B300002D01A4B984204D14FF68F731A404B885B
:100B40001A43174B984207D0164B984204D04FF6E1
:100B5000FF431A40CB881A4302808B8883850B8819
:100B600003850A4B98420BD0094B984208D00E4B94
:100B7000984205D00D4B984202D00D4B984201D1BE
:100B80000B7A03860123838270470000002C01400A
:100B9000003401400004004000080040000C004008
:100BA000001000400014004000400140004401409B
:100BB000004801404FF6FF71818000210180C18013
:100BC0004180017270470000FFF708FE01210F48C5
:100BD000FFF70CFC01218807FFF768FF15E00024F0
:100BE0000A48FFF7EBFC4FF47A6190FBF1F0401CF0
:100BF000C4B20120A040401EC04381B20448FFF7A8
:100C0000EAFD642000F006F800BFE8E73004024087
:100C100000180140014642F228324A434FF0E023D7
:100C20005A6100229A611A46126942F001021A6161
:100C300000BF4FF0E022106900F001021AB100F489
:100C40008032002AF5D04FF0E022126922F0010232
:100C50004FF0E0231A6100229A6170478180808101
:100C60007F8081807F8080808080817F807F808086
:100C700080818080808080808080807F8180818072
:100C8000817F80808080808081818081807F7F8063
:100C9000808080808081807F807F7F8081807F8056
:100CA000807F8080808080808080817F80807F8046
:100CB000808080807F80807F808180808080808035
:100CC0007F8080807F80818080808080807F808125
:100CD0007F7F818080808080808080818180808013
:100CE00080808080807F8080808080808080808005
:100CF00080808080808080808180808080808180F2
:100D00008180808080807F7F807F8080807F8081E5
:100D10008080817F8081808080807F8180808080D2
:100D200080808080808080807F80808080808080C4
:100D300080807F7F808181808180818180808080B0
:100D400080808081808081808081807F81808080A0
:100D500081808080808080808080807F8080818191
:100D600080808080808080808081807F8080808083
:100D70008080808081807F80808081808080808072
:100D80008180808080818081808080808080808060
:100D90008080818180807F7F808080808080808152
:100DA00081808080808080808080808080807F8043
:100DB00080808080808080808180807F8180808032
:100DC000808180808081807F808081808080808021
:100DD0008080808080818080818080808080808011
:100DE000808080807F808081808081808080808002
:100DF0007F8180808080817F8180808080807F81F2
:100E00008080807F8080818181807F808081807FE1
:100E100080817F7F80808180807F808080808080D3
:100E20008080807F8080817F80807F7F80818080C4
:100E30007F8080817F8080808080808080808080B3
:100E4000808080818081808180808080818080809E
:100E50007F817F80808181808080817F8080808190
:100E60008080818081808080817F8080817F80817F
:100E7000818180807F80808080807F808080808171
:100E8000808080807F808081808080808080808062
:100E9000807F807F8080808080807F807F7F807F58
:100EA000808080807F8180808080807F8080808043
:100EB00080807F7F807F807F808080808080808036
:100EC00080818080808080808080808080807F8022
:100ED000807F818080817F7F80808081807F807F14
:100EE0008081808081808180808081807F80807F00
:100EF0008080807F818081808080807F80808080F2
:100F000080808080808080808080808180817F80E0
:100F100080808080808081808080808080807F80D1
:100F2000808081807F7F80817F807F80807F8180C3
:100F30008080807F807F80807F807F8080808080B5
:100F40007F7F818080807F807F808081807F8081A3
:100F50008080808080807F808080817F7F80808192
:100F60007F8080808180818080808080807F818080
:100F70008081808080818181807F80807F8080806F
:100F80007F807F8080808080807F7F818180807F64
:100F900081817F808080808181808080808080804E
:100FA000818080808180808080808080807F807F41
:100FB00080807F80808080807F8081808080807F33
:100FC0008080807F80808080808180807F7F7F8123
:100FD0008080808180808080808080807F7F808012
:100FE0007F8180808080808081808080807F808001
:100FF000807F8081807F80807F80807F8080807FF5
:1010000080808080818080808080818081808080DD
:10101000818080808180807F8081818081808080CC
:101020007F808080808180818080808080808080BF
:10103000807F7F7F808080808080808080808080B3
:10104000808080808080808080817F7F80808080A1
:101050007F7F7F80807F7F807F817F808080807F97
:101060008181808081818180818181818080818076
:10107000818081808080807F7F80807F8080808071
:10108000807F7F7F808081808180807F8081808061
:10109000808080807F7F807F807F7F808080807F56
:1010A000808080808080807F808080808080808041
:1010B0007F7F808080808080808081818080808030
:1010C0007F8080808080808081808081808080801F
:1010D0008080808180808080808080807F7F808011
:1010E0008080807F808081808181808080808080FE
:1010F00081807F80807F807F80808080807F8180F2
:101100007F807F807F80807F7F80808080808080E4
:1011100080808080818081818080808181818181C7
:1011200081808080808181818080807F807F8080BD
:101130007F7F80807F7E7F7F80807F7F80808180B7
:10114000808080808181808180808180808080809B
:1011500080807F7F7F7F807F807F7F7F8080807F98
:101160007F80807F80818080818181828081818277
:101170008080808180808081808081807F807F7F6F
:101180007F7F7E8080808080807F80808180808063
:101190008080808180818080818181817F80807F4B
:1011A0007E7E7F7F807F80807F7F7F80807F7F804B
:1011B0008080807F7F808180818180808182828128
:1011C0008180808180818180808181808080808019
:1011D000807F808080807F7F7F807F807F7F807F17
:1011E000807F817F818081808181808081808080FB
:1011F00080807F7F7F7F7F807F7E808080807F80F8
:101200007F7E7F7F808080808181818180818181DC
:1012100080818081808080818180818080808080C9
:10122000807F7F807F807F808080818181818081BD
:1012300080818080808080808180808180808181A9
:101240007F7F80817F7F80807F7F807F7F7F807FA7
:10125000807F7F7F807F80808081807F80807F8093
:1012600080807F8081818080818181818181828174
:101270008080818180808081818180818182818163
:101280007F7F8080807F7F807F807F807F7F7F7F68
:101290007F80807F80807F7F80807F8082807F7F53
:1012A000817F7D81827E7F82807E7F81807F7F8043
:1012B0007F7E7F807F7D7E7F7D7F82818083838034
:1012C0008182827F83838280838181818181808109
:1012D000808081807F7F7F7F7F7F7E7F7F7F7F7F1A
:1012E0007F7F7F7F8280807F8382818081828283F3
:1012F000808182827E7E80807D7E807F7D7D7F7DFD
:101300007E7E7D7D80807F7D81807F8082818181E6
:1013100083828182838482828282818181818080B2
:101320007F7E7F807F7F7E7E8080808080808080C7
:101330007F818080817F807F8182818282818181A3
:10134000807F8081807F7F7F7E7E7E7F7F7F7F7DAD
:101350007E7F7F7F817F7E7E808080808181818093
:10136000818080818180818282828182808282826A
:101370007F8182807F807F7E8081807E81817F7E71
:1013800080807F808081807F7F808181818080815B
:1013900080808181807F7E807F7E7E7E8080807F56
:1013A0007E7E7F807F7E7F7F81807F808081808046
:1013B00080808080807F7F81808080808181807F2D
:1013C0008081818281818281818282818281818109
:1013D00081828281808180807F8081807F7F7F7E0B
:1013E0007E7D807F7E7F7F7E8081807F8081818007
:1013F000818180807F7F7E80807F8080807F7F80F2
:101400007F7D7F807E7E7D7E7F80807F807E8180ED
:101410008280808282818181817F818382818182B9
:10142000808082827F818181817F80807F808080B7
:10143000807F80807E7F80807F80818081808080AF
:101440008281818182828081807F81837D7C818194
:101450007D8081827D7F7E7C7E7F7D7A827F7C7DA8
:101460007E7D7E817F7F807F82818484838185856C
:101470008383828380838281807E80807F807E7E62
:101480007F808080807E7F7E7F807F7F817F808164
:101490008182848281828280818180827E7F81803C
:1014A0007D7F7F7F807F7E7C7F7D7B7C807D7D815B
:1014B000807F80828182828184837F7F83817E811D
:1014C000817F8284808081857F8081817D7E817F14
:1014D000808080817F8080807E8382808282808005
:1014E000818080817F7E7E807F7F8081807F808100
:1014F00081807E807C7E7F807D7C7F7F7F807F7E01
:1015000080807F7D817F7D7D80808081817F8081E3
:10151000828080817F7E80828181838181828280BE
:101520007E7F83848082827F8385828083828182A2
:101530007E8083817E7F7F807B7B7F7F807E7D7CC2
:101540008080808080838383838382838281817F84
:101550007F7E7E807D7C7F7F7A7C7D7E8081807DAA
:10156000807E7E7D7E7D7E808182808083837F7E83
:101570008783858482848486828382808484838234
:10158000808080817B7C7D7F7D7E7C7C7E7B7C7B84
:10159000817E7D7F83838384858684848483858420
:1015A0007D8081847C7E7E7D7F7E7A797E7D7B7C62
:1015B000827F7C7D817E80817C7C7D807D7E7F7E44
:1015C0008181817F828381808584838283858486F3
:1015D00088888784818382847B7B7F827B7B7A7B04
:1015E00080807D7A7E81817F82807F7D83858584F6
:1015F000828483807F7F7F817C7B7B7D7E7C7D7B03
:1016000083838182807E81837D7E7D808282827FD2
:1016100083837E7D7E7C7E807F828282817E7D7CD4
:10162000807E81827C7F818282807C7B82808282BC
:1016300083868686868886827F8487847F7B7F8078
:10164000818580817D7F7C7B7A777D7F7A7C7D7DC3
:101650007F7C7A79827E7D7F7C7E80838182827F9F
:10166000888583827F8081857F818382807E807F61
:1016700082837E807E8281817D7D8080817F7E7E6F
:10168000828283808381818381807E818080828049
:101690008585838185817E81807E818381807E7D39
:1016A000818181857C7E7D7C7A797C7B7E83828151
:1016B000817E7B7B7D7C7C7E7B7C7D7E7C7B7A7B64
:1016C000848383808787858283858686898C8782C9
:1016D000807F7F84808181817B7C7E807877797C2C
:1016E0007E7E7C7B7D81827D857F7E7E84868687F3
:1016F0008C8885828786888A808286857F7D767DB4
:1017000077787F7F7A7B7A787876747578797C7C45
:1017100081807E7B83818081858584828C88878699
:101720008A89898B7C7F84888283847F7C7D7C7F8F
:101730007A7B7D7C7E7E7B7C807C7C7B807E7F81D7
:1017400086868280807F818281818385838885826D
:10175000847C7A7F7B7F82878584837E7A77798099
:101760007B7F807D7E7C7A7A7B78797C8080817EAD
:101770007F7F7D7F86858581888685848184838639
:1017800083848280868382847F7D7F827E80827E46
:101790007C7C7C7E7D7F7C7D80807E7D7E81828066
:1017A0007F7E797C807E7F80838585858182828132
:1017B000898484817A8081857B7C7D7C797B7B7B3D
:1017C000787675757E7D7B7B8384807D84807F8148
:1017D000888887868E8E8C89858785898182858693
:1017E0007C7F7F7F7A7B7D7B7878787A7778777853
:1017F00083807C7985888481807E7F817F808282DE
:101800008A88827F86848688848283837A7C7E81AC
:101810007979797B797A7A79797777767E7D7C7B2D
:1018200089857F7E82828486858686848D8C888663
:1018300080808488818586867F807D7D78777B7CAB
:101840007D7F7E7B7F7C7A7A7E7D7F7F86848380AE
:101850007B7C7F838182817F8B8A83817A7E858670
:10186000807F7E7C7D807D7E7673787B7B7D7D7BBB
:10187000807D7A78838385868C8B88847D7C808646
:10188000818484818A87807F7C7F87888485848027
:101890007E7B797E8081848180817F7F7A787B7E68
:1018A0007D7F7E7C807E7B7B76767A807F7F7F7972
:1018B00089867F8182898E8A8F888283747A8389E0
:1018C000807F7D797B78767B79797D7D7E7E7C7B60
:1018D000827D7F7F7F818486878884808A878688CF
:1018E00082888E8C888985837D7B7D7F7C808383C5
:1018F0007B7A77787B797B7D7C7E7D7D7B77787B3F
:101900007B7C7C7E8584827C8B86818584868987AE
:101910008486848678787D807B7D7C7B77787878F8
:10192000797576778282807D878180827F808588C5
:10193000888885838C8B898887878C8E818786822F
:101940007675797F7A7D7B7A7D7878767A7A7C7EF7
:101950007D7D7C7A86817E7F82848586848686856D
:1019600087868283838384857E7E8180787674797E
:1019700077777B7B7E7F7E7B807D7C7B7D80818398
:1019800088837F7E85838486868786868A86818310
:101990007F81868A838888857D78787B7D7E82803A
:1019A0007E817D7E7D7B7C7C7E7E7F80817F7B7B5C
:1019B0007D797B7F8183817F87827E7F7E8287891D
:1019C000818484807C78777C7C7E7F7D82817E7C34
:1019D0007F7C7D7F8182818387857F7F7F7F8386F8
:1019E000808484828A8584808186868984858786AE
:1019F0007F7B797B818285828083818278797A7D01
:101A0000757677797E7E78737D797A7D808484811E
:101A10008B87837F8688888A85868B8A7A7B7B7F83
:101A20007A7D7D7C7B7979777877797B7C7B787818
:101A30008283817D888683838A8A8A88908F8C8935
:101A40008484898D818688887E7B7777797A7C808B
:101A500075777677787676757B7B79788285847FE3
:101A60008382808185868683888B8A88838282852B
:101A7000757A7E837C7978737E7B7A7B7B7F8081AD
:101A80007F7B7C7C8384837E878A89858987838327
:101A900082818588898A868485818289757C818412
:101AA0007C7875747B7E7F7F7B7C7B797A79797A91
:101AB0007F7E7E7B83848685858483818380818607
:101AC0007E8186877F7F7D7A76767A807F827D773A
:101AD0007E7C7D7C818382818581808087858688EC
:101AE0007C80868781807D7C83807F8184878985D7
:101AF00081858486827F837F868684827A7D8085C5
:101B000076787B7C75757372807C79777B7B7A7E47
:101B10007D7C7E7C89878380878789898386898885
:101B20007B7A7B818081827C7C7E7E807C7B7B7BE0
:101B30007B777A7C8586807C847D7F838687868799
:101B40008C8889848787888C85878B88807E7E8136
:101B5000787A7F8078787776777474757B797879FE
:101B60007F81817B847F7C7F858587858B8A89883F
:101B7000838283867B7E82847D7D7C7A7D7D7C7F73
:101B800074777B7C7E797575827F7D7F858787847E
:101B90008582818389888A888E908D8B8B898889BC
:101BA0007B7E84897B7C7A7A767376777375757899
:101BB00076747371827F7C7A848788858784828239
:101BC00081848688868484837F8380817D7C7E80F7
:101BD0007978787A7C7C7C7B7F7F7E7E817F7F803A
:101BE00084838284828487858685838188878687AB
:101BF00081868A8984848380817F7D7F7C7C8081CB
:101C000078797A7E767574757A7878788A85807E28
:101C10007C7F85888484807E878483828384858793
:101C20007B7F81847A787B797B7C7C7B7C7E7C7CEF
:101C30007D7A7B7B81807F7E8B8A83818280848793
:101C400083868585878784808987888B83888B872F
:101C50007B7C7F847D7E7B7D78787C7C77787476D6
:101C60007A797A7980817D797C7A7B7D8487837F9C
:101C70008380838386868384858383868483838528
:101C80007C7F828174777A7D7A7B7A777E7D7A78A1
:101C90007A80848182807A788887898593918D8CF7
:101CA0008A8E8F8E828386897B80807F7A797A7A0A
:101CB0006E70727573727371817E7A768384878792
:101CC0008687848282838686898D898785858886B2
:101CD0007A7D8085787A7C7877777577787576766F
:101CE0007A797B7A85807C7B83858A898B8C8884D2
:101CF00089888A8D8A8E8D8B858688897C7D7E8178
:101D000076777B7F6F717273777371717E7D7A7A6C
:101D1000848583807F7D8083898B88838B8685857E
:101D20008485898F797C80807B79797A7D7C7A79CA
:101D300077767A7E7B7D7B788583807E8A8D8D87A2
:101D400087848387808285878787817F8483838751
:101D50007F8286867B7B7B7B7A7B7D7C7B797677BB
:101D60007B7C7B7B7F7D7B7A8184868584807C7C89
:101D7000808082868185828185818182808284843F
:101D80008180828277797C7E7B7A7A797F7C7A7B8C
:101D9000847F80817E8284848B84827F8A89898B00
:101DA0008C8D8F8D8585868A7E8085857C7C7A7CEE
:101DB0007274787A747271717978747384847F7CA8
:101DC000817E7E80817F7F818584828287868788ED
:101DD000808285887F7F7F7F7E7E7E807A7D7C7E0D
:101DE0007F7D7C7B7A79787B8384858086827D7E0B
:101DF00086888A8A8D8E8C89898B8C8A8688888948
:101E0000808385827374777D70727070787370715F
:101E10007E7A79797E8182838685837F86898A8AA4
:101E2000898C8B848182858A7A7C7D7D7D7B7B7B9E
:101E300073757779757174757E7D7A768A888380FB
:101E4000878889898C8985878A8B8B8A8F8C8B8BF5
:101E50008286898D7C7D8082767A787A71717577B9
:101E600076767472797875758386837C85817D7FBB
:101E70008887898784868588848485847D80828319
:101E80007D7E7E7D77777A7B777877767C797876BA
:101E90008583817E838689898888868289888989E5
:101EA0008B908E8B838384877B7D7F7F7E7D7C7C04
:101EB00076787B7B76747576787778778C86837D79
:101EC00083858789818385868081807F7B7D7F81F3
:101ED0007E81817E7878797A7C7E7E7B7E7D7C7C3B
:101EE0008281807F7D7D8081878985807F7D7F83E2
:101EF0008383838183838784878684848A898B868E
:101F0000858887897E808584777A7C7D75757573F1
:101F10007B787577797D817D7E7B787A7F80807E06
:101F20008D8986827F7F828985898885827C7C8075
:101F30007E818585787A7A7C777677777D7E7B78E7
:101F4000818183807E817E7F898684828C8D8B8750
:101F50008C86888B868B8C8D80818282777A7C8040
:101F60007576787771717172787878748281807DF6
:101F700084807E7E86898A89868381828586898916
:101F800085828182797C838578797979737272759B
:101F9000827D78747D7D7D8286888B8488837D7F39
:101FA0008B8D918F8787868788888A8B7C7D7E81C1
:101FB0007F8181837A7776777173757B827D777085
:101FC0008482828480898A857F78737B7E81858202
:101FD000827E7A7B7A7E8284837D7778818388870C
:101FE0009089807E7A7E86908586847C7D79787ED5
:101FF000818888837A7573787C81808187817C75FC
:102000008D8B878C858989897E80868884817B7980
:1020100073787D827F807A76777174777F81837F12
:102020007C7E797C7E797A7A7C7F7E7F8784827ED3
:10203000858683848B8C8A887D7B7E838289878555
:10204000847B7A797580858685837A7577778083B6
:10205000878A817D84818385888783848286898934
:1020600086807F80787D82857B81807E7D78797493
:10207000787D7D7D7B7A78777876767979797A7ACA
:102080008889837E8581858580898D8D8685837FFE
:102090008288888784807B7A797E868987867B742C
:1020A0007D787A848286868082817E7E827C808032
:1020B00081878B8B8884848376777D8082847C7A09
:1020C0007E7B7A7C7C7E8384808180797575798043
:1020D0007B7C7A7581807E7E7F7F817E868885800D
:1020E000828183868283818181848382807D8181D4
:1020F0008083817F818282817F7B7E7F82838781D3
:102100008A878684858684897B828887807D7A7E9B
:102110007573767A7E7F7F7B767A7C81817F7F7B09
:1021200083827F7B828183867E7E7B787D7D8182B8
:102130007B7C797C8180817E7A7B7C827F7E837DC3
:102140008B88848687848687838184858387878933
:10215000827C7A7E7E848A887F78767B7F84857F86
:10216000837F808280857E7D848083827F8582815B
:102170008A81808174787D8379797F7E777A7273A2
:102180007D736F728281807F857E80808288898B5B
:102190008C87827F8182868B858A8A82837F7C7D01
:1021A0007B7D78817E7B7E7E80807D7C8181818647
:1021B0008D8A877F86837F867D7D8B8C838A827BD9
:1021C00085817C7977797E8477797D76787370756F
:1021D0007B7A76767F787E837E8683838483847F12
:1021E0008989848A848387868483807F7F7D7B83BB
:1021F000807E7F7C817C797A7F817B8380858B80E8
:1022000085848183868A90898A89878A7B84818272
:102210007D6F797B7D80747E7B757B737D79798022
:1022200084847C7A817C82837F85827D7C7E8283AC
:102230008281827E7D807C7C7D7979807A7B7C7EC8
:102240008B887D798C80818481838791858E8C8138
:102250008A83787C7D7C83887D8383808486807C70
:102260007A7C7E7F7D7F817C8682807B7E7E7E8481
:10227000808387837D7F817D8280797B7476787E81
:102280007B7A7B757E7C78828081847A7E7A818974
:102290007C8681808984837E818287898685888304
:1022A0007F7C7B857D837F7F7B81868480877F7930
:1022B000857C7C7D838485887D82898781817D7B07
:1022C0007E82818083827F7C807E8283757F7F7E19
:1022D00078727A7380817979787B7A7B8281857F45
:1022E00083838281848284848184818383818181C8
:1022F0008186868587898182797E807F7F7E8081C5
:102300007F807A788783828188837E8679848E88AD
:102310007F7B7B7E7C81848583817C7B7B7B7F7BD9
:102320007C7F7C7C7B7D7C79827F7F7E817F7B7BD9
:10233000837A777C7B828C87867F7A7C7D7F7F7FA8
:1023400082797D81838A898A878688818481858450
:10235000797F7B7D817F817F7C807D808683807F8C
:10236000898581817C7E8387828585817A82817A55
:10237000827A7A7A797D7F83807D7C77777A787BA1
:102380007F7C7B7785817F82858780827C818B8B38
:10239000817F7E807F827B7C7C7E8380828382843F
:1023A00080867D7688808486838380887F87888105
:1023B0008A817C857E8A8482797E8C897D7D777610
:1023C000797175747D7C807D86888480807B7C7F3C
:1023D000817F7B817E80897C867C7B82787A7D7F11
:1023E000807B7F7E807F7C7C807F7F7C7E7B818BFF
:1023F0008288827C8B878884838585887D7F858A97
:102400007B88837D837F7D7D83837C7D7B818482CC
:10241000827F7A7D817E807E7E7A7F8384858385BC
:102420007E7C787D817D828480847B7C7B7A7C7AD3
:10243000757571788280827B84868182807E7B7EC6
:10244000877C7E838A8E84878B8C8E838684838D23
:10245000777F7B767F7A7D7E7A8177787E7C847DBC
:1024600085818183878988848986868A797F838527
:102470007F7F7F7D7C7978797378808076767371C1
:102480007C77767584827F7B8986888383888B8A34
:102490007F808187808686857D817A7C86837F7C2C
:1024A000797570788584898480817F838686878525
:1024B0007B8080848D89868184838788807D8385E5
:1024C00074767A7B777E847D85857B78797B7B7F4C
:1024D0007E777E827F83817F817E817F7C7A7D840F
:1024E0007F82837F7F7E7B7F817D8285807E7C82F1
:1024F0008185817B898281818284878F7C848987A1
:102500007D7F7F7E807D7D7A7E85818081858481CF
:102510007D817E7E7F7F807B82837E7F847E7D7DCA
:102520007D8181877F818179847978807A7C8085BB
:102530007A7D7F7C7F807B777E7C82878185807EB1
:10254000737478808C89847A828183898A8F8F865C
:102550007F858485868078797D7B808779787D808A
:10256000807F7C79807F818087858989868A85863E
:10257000767D7E7C867E807F7C7D7D84787B817E7F
:102580007B797777797A79788583807F7C797F8684
:1025900082868984817E7F7F817E8384818383801C
:1025A000828083817D858886878684817D7A7A8012
:1025B0007D7C8282857F787E7E8384848183848310
:1025C0007C7E7C7E8381837E8787807F7E7C8587FF
:1025D000797E80827C77747678757E7F7D817E7B44
:1025E0007F7C7A78817E7F818283878289868285DB
:1025F0007B8284867F7F7E7D868E8982807B7B7FC7
:102600007F7C797D7E7F817C8784797B898B8886BE
:1026100085828486828986837D8388818481787897
:1026200072757D8580827A757C797B7E7A7F7E7FEC
:102630007E84857A8C827B7C7E8185897F7F827E89
:102640007D7D7F82827975787A7A7C8280878B83A0
:1026500091887E7F7B7C818C8488847F8481828347
:1026600078757981868B847A81777E8282807E8478
:10267000797E848282817B7D868984807C757B8261
:10268000737E898583837D7480817A7B827E838556
:1026900078838182807C777080787881777C7E8077
:1026A0008B86847E828A898A928E807A7C7E8892CA
:1026B0008686837E7A767780757C7E7D7D807F7C42
:1026C0007F81807F857D7B7981898F908E88817DD8
:1026D0007C7E878F787F827E797878767677797A34
:1026E0007477747488847D7580797C83878D8E8AF5
:1026F000807F8082858685818586848485878485A0
:10270000787578807A7E817C807A757688858482F7
:10271000827D7E8A85828788868B8A8985847F8070
:10272000787C8184817D7A7775747A8076797D7BF7
:102730007F80807B847E787B86888886817A7D8492
:102740007D888A8781777174787C8587837F7975A6
:10275000848284857E7F8687858682828783807F48
:102760007D7D80878888837C807B80877D83838450
:102770008686867F7C7879837E82847E7D81828056
:102780007B79757A7A7A7A797E7E7F7E83807D7C8A
:102790008383858682837E7F7E7B7C7E7B7D7D803E
:1027A0007E7F7F7D85807C7C82878A868985858403
:1027B000848584857C777D828286857F8382827E04
:1027C000847D7C7F7A8185877D7D7D798C88807F03
:1027D0007E8385877E7A7C7F7A7F7D7E7D7A7C7B17
:1027E0007C7F7C7F8283837A807A78807D7E7F7F06
:1027F0007D8283817E7B787A8282818084818284DB
:1028000081828789818383828685878481817F7E97
:10281000858488847A78777E7F7E807E84838182B7
:10282000817C7C827F8081827F838683888683848B
:10283000767878817D7C7B777876787C7D7C7A78F9
:1028400077797F81817F7A797F7E7E7E8F8586868C
:102850008B93909386868989817F81847B7C7B7D25
:1028600076757A7A7D78787882827C7C888382819A
:102870008E8E8B8D7B85908D8D898882797D7C86EF
:1028800073747A78757472767371717081847D76E1
:1028900089837F7E8B86848A858B888C7C7E8583EA
:1028A0007A797B807D7C78757B7A7E7F80817E7D66
:1028B000848A877B897D7A80868B878B85848E89C5
:1028C000898A84877C7A80847C7A7D7D7D83827FFF
:1028D0007E7C797A777E7E7980767876817E808438
:1028E0007B8289868A8283817A7C79807D7C7E7DE9
:1028F0007B818285747A76767D7D7F738A847D7E06
:102900008A8A8B8C81888E908584807F7D7C7E8076
:1029100082868A857B7E7C7C7E7C7C7C7881837DC4
:102920008781797888827F85858786888383868773
:102930007A7D817F7E7E7D7E787A7C7D7A7B7A7AD5
:1029400078808278817875757F7A757F80858C86AE
:102950008F8D88867F7E818386868B877C8281842B
:102960007E7E7C7B7781827C857C74748685808684
:102970008A8B918A848485897F7E7C7A8681838212
:102980007A7E7F847479797A73797B73847C7472AC
:102990008084848280818A8681837B8077777C7D36
:1029A0008483817E7C7D7D80817E7D7E80898C8319
:1029B0008E898280848280847C7F898C83867F7DDF
:1029C000817F7E7D7D787B7F7F807F7C7D81808025
:1029D00083898A7E8B86808083807D857C7C8381D1
:1029E000798081837576706E807979797A80828337
:1029F0007E827F7A7C838780898277788C828685C5
:102A000085888E917A8086807A7871767C7F7E7ECA
:102A1000858483817F86818482878C7D8F877E8178
:102A2000878586897A79899079817A7B77747975B7
:102A300080807C7D747A7A7C7C7D787682898478CB
:102A40008D7F7B7F838481897B8087847D81828267
:102A50007B7B77778280817E82828284807F7D7F8C
:102A6000888B877D877F7C8183828689858B8D8912
:102A7000828389877878777A7B7A7B7A817F7C7B7F
:102A8000837E807F7D857D7E857A7575817E80875A
:102A9000858C8F85838487847473737B7B797A7844
:102AA0007A7D7C7B787475798789787987827F7F56
:102AB0008D888C908593958E878583827A787882AD
:102AC0007D82857E7C7D7F807B7774748581797E35
:102AD000867F7C8087888D8E8691908A847F818096
:102AE000737477857273727076767975767774758C
:102AF0009081777B7B7A7C8880858D8693948A828F
:102B00008E8C888C7478838E797C7F787F827F7BB3
:102B1000817B747484747F847A7C8087868D8E82B6
:102B200093918C878384828A767180857C7C7C7F7C
:102B30007E817F797776777C756E75777A797D81FE
:102B4000879087808C8A8680887F7D8776777F8450
:102B50007E7F807B8185817F7E7C7B7C76757E809D
:102B60007A7F8585858C867A8F868385898A899008
:102B70007F848B877F7E818280827D7B7B787B7C5C
:102B800078797C7D757C848381847D76857F7C7A71
:102B900084818288787F86877E7A7D7A82837E7E32
:102BA0007C7C7E7F7176787B7579817C89887E7765
:102BB000908A87838B8A8E927E8286897C7A7C7EBD
:102BC0008889837E7E7E82837276787C767C847B25
:102BD00088857B778A8887868384888F80848887A6
:102BE0007A79797C7D7D7A7979787C7F707878794B
:102BF0007D81837687837D7D86807F8281828888C0
:102C00007F8685887E7E7F7A828082837A7D7C7FC4
:102C10007E817C7A7D868B808C827C7D8C87808790
:102C2000828688877F8188897A7D797B817C7C78A0
:102C300081808183797D808379827E73847D7877BA
:102C40008983798080808989797C86897578757691
:102C5000817E797286848385808481847D8A8A7D61
:102C60008D877F7A8B7F81897F7E818C7A7C83853B
:102C70007E7B77768285847F818283837C7C7B7D6B
:102C8000808B80778B827D7C85827F887C81858329
:102C90007E7A7A80767C7C787E7D7C777E81817F6F
:102CA0007E79797B80867D78867F7A798583818439
:102CB0008483888A80878C8B7C7D7D7C837F7A7BF4
:102CC00084838281807F838584897D7E86817B79F0
:102CD000837D828687888F8C81868586747A7B7ACD
:102CE0007D7878757E7C7B7D77777A7C8383787935
:102CF000857E77768A82858B81888D8D797D8587A3
:102D00007C7D7B7782807A788182808179797D80F1
:102D1000867B737B8A8381828B858890858E918D5B
:102D20008482878777797C85767475757A7A7A78E4
:102D30007B7A7979887D7B7E84817D8581808A8894
:102D40008A88878B81898A8675777F8074726C7296
:102D5000797775717D7B7B7D887E7A8087817E84A3
:102D60008B878C8E8C8D8E93818A8B8B797C807DEA
:102D70007E786F7484817E7B7D7E83868076787D8D
:102D8000827A7B8283898C898A8A8A8784878382F4
:102D90007675777C787572777C7E807C787A7C7D9E
:102DA0007D72757680797B8482828583898C8D871C
:102DB0008C8C8986838582857C7A7B7E807D7D7FF5
:102DC0007C7E7F7F80787C7E827D7F898386858301
:102DD00087888B858A8A88887F8685837B78767AC0
:102DE0007F7D7A7B797C8080757076787975777C49
:102DF0007F7B80808C8B89868C8C8D8B797D7E858A
:102E000077737779817F7E7D7C7D808275747B7D11
:102E10007C76787C868885809091948B899292903C
:102E200082888D887C7C7D807F7E7B797A797A7EB2
:102E3000777075787C74787F8181848488898B8AA7
:102E4000878A8C897D818286787675777A7776779E
:102E50007978767A7973787B7F777B8183838683B1
:102E60008B8B8E8B8B8F8E8B7E8584857778777816
:102E7000847E787683838285837D82847D797A855A
:102E8000807D7F81908A87858D8D878B7C7D7F86F5
:102E900076726D73807B7A77828185867A7A848672
:102EA0007774777F7E7D7E7B8686848580868A8325
:102EB0007B7E81807C7975778684807A858585861E
:102EC000847C7F84827E7B82868180828684888BDC
:102ED00081848B8A787D84857978777583837E7AFF
:102EE0008583848385807E84807B787F8179767BEF
:102EF000867D7D83808183887A7E85837475787AE8
:102F00007B7B7C7788898881888583877F7E797DB4
:102F1000857C73788B827F838C8D8D8F7E80878A72
:102F20007673767C83807E7C848386857F808084B4
:102F30007E7C7577857F7C7B898C8B88858A8E8D5E
:102F400074788184727374747C7E7A747E80807EDF
:102F50007F837B7A7C80787288857C7A8E898B8A65
:102F6000888B8B8B7A7D8288737173777B78787589
:102F70008482827F838A8484838B8B80868A858007
:102F80008388888388898C88777F85856E6E737443
:102F900077746E6E82807C7B80898A837C85888052
:102FA000807F817E8A87898684878B8C73787D80F9
:102FB0006E6C6B6E7E786F6E8887818081878E875E
:102FC0007E7F8685888887848B90908B868D908B7A
:102FD000737D7F80717170707B7A726E8486807968
:102FE00081858A8681818785818483838A87888792
:102FF00083838587737B7A7E72737271797673703F
:103000007B7C7B77848085848285878880868A82A2
:103010008981858A868986887D8186857D78777C89
:103020007C7B7878848284818383888D7A7E858393
:103030007D7B7D7D8C868685878B8D90777C838458
:103040006F707476767675737F7D837D807F8285E1
:103050007B7D7D80827D7C7A888485848588898B50
:103060007C7F83847979797A77797A7A8480817D93
:1030700083807F8685817E808C8581868F89898B00
:103080008489898E807D7E827675787A7B7B77775E
:103090007F79787C857F7C8083827E8188817E8138
:1030A00086848488858687867A7E7F817474757825
:1030B00073717272847E7B78878782858583828430
:1030C000848280828C888785898D8B8C80808586A0
:1030D0007874797E78767777847F7E7D898683851C
:1030E00086868385838083858282828480818382B1
:1030F00077777A7F7574767978797778827F7E7939
:103100008581828681807E82807E838284808185A3
:10311000808383847B7A7E7F7A7A7C7E807F7B7BD0
:10312000858484828C8989898885878B7D7F838744
:103130007B7A7C7E807F7F7D808283837C7E8080A3
:103140007B7C7D7D7E83827D858684837D7E80867B
:1031500078787B7C7A7B79787E7C7C7B83807F7EB1
:10316000807F8282827F818284838582848383833D
:103170007E7E80837E7F7F7D8181807F858582804A
:103180008585848380818285818181828585838311
:103190007F8082847B7C7D7C787B7A7B7F7E7B7961
:1031A0007E80807F7F7F7E7F8280807F7D7D7F822B
:1031B0007F807F7E82827F7D81818181808080810E
:1031C0007F807F7E807E7D7E8586858283848484E9
:1031D00082838383838382818384838383818080CA
:1031E0007F8080817F807F7E8081807F7B7E7F7FEC
:1031F000797A7C7C7B7C7B797F807D7A84848080FB
:103200007F8183837E7D7D7E7E7F7F7D7E7E7F7FCF
:103210007F81817E7B7D7D7D7D7D7D7C88868380B9
:10322000898A878886878787848585877D80828548
:103230007C7F7F7D7D7C7B7B7E7E7D7D7F80817FB3
:103240008283817F84828180828283837D7E81816B
:103250007B7D7E7D7A79787B7B7B7B7B81817F7DAB
:103260008181817F8381818085888684808181823C
:103270007E8181807E7F7E7D83817F7E8685858342
:10328000838584877F7F7F8181807F7F8281818129
:1032900081848583797B7D7E7C7C79787F7E7C7C54
:1032A0008082818181807F807F7F80807E7F82811C
:1032B0007E80807F7978797A7D7D7C7A80817F7D40
:1032C00082818281858484848987858484848687B9
:1032D000838587847E7D80827D7E7E7D7D817F7DEE
:1032E0007F7D7C7C84817F818585848483828385C6
:1032F0007C8181837A797A7B7D7D7B7B7D7F7E7DFE
:103300007D7D7E7C7D7D7D7D807F7D7D84828282D2
:10331000848584857C7C7E827F7F7E7A8484827FA4
:103320008384868680818283818181818283838276
:10333000828483827E7D7C7F8181807F858683817C
:10334000828284847E8081827B7B7C7C7D7B7C7C92
:103350007B7C80817B7B7A79807E7D7B7F807E8099
:103360008382808082838483818282837E7C7D804D
:103370007B7E7F7E7C7A7B7A84867E7C898786834F
:10338000868789898889878681838282817E8082F7
:1033900080818080797A7B7D7D7D7B797E7F7E7D5B
:1033A0007E7E7E7F7D7D7E7D82807C7B888686831F
:1033B0008589868A787A7E80757875757776727158
:1033C0007F7D79788787827E8F8C86868E8E8B8DA7
:1033D00088878A8C7A7C7E837C7C7A7A7D7C7A7AF8
:1033E00082807C7C8786818186868584807E8386B8
:1033F0007F7F7D817C7B7C7B7E7F827E80828282E0
:103400007D7E7E7D797C7A7A79787677807E7D7D07
:103410008483818581848585818185807F7D7F838B
:103420008284817F8484847F858483818585868866
:1034300081828183757B7B7C797B7A768683837EB0
:10344000888B878782888A897D7E807C7877797A65
:103450007A7A787A7B797C7B7C7F7E7E8283817F9F
:10346000828584847D7F7F84817F7D7F80817F7E54
:10347000817F8182848283847F848181777F7F7B47
:103480007F82817D878285858B888686858E8B88E5
:10349000817F85837B787C80787D75767E7D78786A
:1034A0008180807D808285817F8080827C7C81801C
:1034B000807F807D79807D7E7C7C817E847F7E7E26
:1034C0007F81828475777E7F7F78777985827E8021
:1034D0008C8C86868A8D8F8E818286887C7C7A7C95
:1034E0007F81797A807C817D8784848285898489C3
:1034F0007E7F8581797B8083777D777B7B797C7309
:1035000086817E7D84898485828088837B7D7B869D
:10351000797C78787B777E7C7F7E7C7F8183817DE0
:10352000858486827F8080828581807E8582838774
:103530008787818583848785817A7D827A7E757984
:103540007F81817A837E7F7E82837E7D8787878766
:10355000848586847D7C7F84777674757B777775A8
:1035600081817A7E83858882848182827A7D7C8350
:103570007F7C7E7B848280838183817F8785858435
:10358000878789877C7F80837F7C7C7B7D7C7D7D3A
:1035900081817D7C88888A87838484867C7D7B7D0D
:1035A000797E7979807C7D7B82837E7D8083868332
:1035B000837F8085767B7F7B7B78797C7E80777B41
:1035C0008382857D85868588848281827D7C8081D9
:1035D0007E7F7F7E82808181837D7E7D87888484DB
:1035E000858586867F82828281807D7C7E7F8280C7
:1035F00085828181838987867C7B7E8375767579D8
:103600007B77767680827C7D8583817E86858586C4
:10361000818386867C8081827877787978767677E0
:103620007F7C77788D888584898A8B888284878956
:103630008282847F8181828480807F7D8682828372
:1036400084827F877A797D7F7B79777A7A7C7C7CAC
:103650008482807E8589888582858586807E807F3C
:103660007A7B7A7C7E7C7D7F807B7A7C827F818185
:10367000848484857B7F7D817D787A7883827C7D5C
:103680008784827F8D898A8A828786867879807FFF
:103690007B7A797D7B817F7B817D7F7F8684818240
:1036A0008381848380807F857C7E7D7F7B7C7E7D23
:1036B00084807D7C828787837D8082847879797B12
:1036C0007A7778767F7D7E7E8784838389888988F0
:1036D000888B888A7A7C80837A797B7B8182807BE5
:1036E00084817F8184878985808285867F7E7F82B1
:1036F0007F817F7E807F838278797B7D7C7B7B79F5
:10370000827F7D7D7D817F817D7E83817B7C7B80CF
:103710007F7C7B798281818484848382818183839D
:103720007C7D7B81787A7B787978787A88867F7BD4
:1037300095918E8B868A9093797D81857B797A7A33
:103740007E7C7A778C8B8985878C8C8B787C818248
:103750007876757677757977817E7E7D888887849F
:1037600082858587787A7D7F75767577827C787497
:103770008584848280858486797A80807A7B7B794F
:1037800083807D7C8D8B8C888C8C8F90878B8A8DB1
:103790008080848578767A7F7A7879797D7C7C7D63
:1037A0007E7C7B7C797B7C7D7C78797A7C7A797A6B
:1037B00083817E7D838282847D7E80818283807E00
:1037C00084848281868585848886868685848688A9
:1037D00082818182848483838B8B8B8786888A8A8B
:1037E0007B7E7E81747577797974747681807B7B3A
:1037F000868684827E7F828475777B7D6F7172720C
:10380000716F6C6C807D7A758885858682838586EC
:10381000797B7B7F807D7A7A898684808D8E8B8C84
:103820008F90908E84848488848482828987878222
:10383000908E8A8994969692898E9091797D7E83D6
:10384000757576767E7E7B787A787B7F75757A7DE6
:103850006E6F71746A6B6E6F6F6E6D6D7572726F75
:103860007D77767A7F7F7C7C7E7C7D7D7D797A7F9B
:1038700082847F7C8587898584848586838684830A
:103880008A8A8881908C8B8D929191918D9393925D
:103890008D878A8E8D8C8F8E8E928F9084878B8A67
:1038A000838584827A7B7B7E73757476807D7B765C
:1038B0008A8A85808085888773777C7C6569696C56
:1038C00063646463706C69667474747172767D7A13
:1038D000787375787C7B77788281807C918E8888FC
:1038E0008990918C7C7F86857877787C84807F7ABC
:1038F000978E8A8A9E9B979795999A9C858C8C8D9A
:10390000828186847E807E827776777A82807F7AD3
:103910008B8782847D847E8377797B77807B7A79BD
:1039200081827E7E76767B7F6A6B70746B6C6A6A4E
:1039300078716F6C8280787A82877F7C8B8D8C82A5
:10394000868B87897E7D7C7C81817F7C81898A874B
:1039500076777778817C7875A1A1968A97A3A29CC7
:1039600093989A96878E8B8A8B878D8A8A8E898A7E
:1039700082898B848B8989848A908F8D78858482D3
:103980007676787284847F797C8283826C7579778D
:103990006669686B5D5F5F625F5F5A586E676361FF
:1039A0007C817770777E8178737678796E716C6FB1
:1039B00072756E667A7B7871747977787173726FCD
:1039C00077757573878C81788D908E84999A9A9289
:1039D000979D969594999A958F9294928F928D8CAB
:1039E00091908D8E9894928F9DA69E97909CA2996F
:1039F0008A8E90908B908C858C92948F7B85888812
:103A0000686C6E6F6C6A666675726F6E727E7B74C0
:103A10007476796E82837B788686827E787B7E80E0
:103A2000767876787073726F6A6C6D6D77736E6B83
:103A30009295897B989C9B908C9293978B8A8D8989
:103A40008B8E8E8F878D8A898381818387868383FE
:103A5000838281857781817E78797C7781837D7986
:103A60007F8A8781657079755B5B61665759575AA4
:103A70005656595569615C5B7981776C787E81799E
:103A80006C7175767271706A817E7D7981838484B0
:103A90007778797A84827E7A8E8A87888E97948DD9
:103AA0009B9B9B91A7A9A6A1A3A8A8A492979A9C27
:103AB0009694918F959694938E8F91938F8E8A8DF5
:103AC000929E9B91899096927C817F838586867E4B
:103AD00080868A886E747D7F6566686B6E6D6B67A5
:103AE000757876736B797D74726E736F787B7B7685
:103AF0008285877E808382817D827E7B7B7E7F7CC8
:103B0000767B7979868379759D9E9B8C9C9EA5A3F7
:103B10008A8E90998E8C8C8889888C8E757C7F8417
:103B2000737074767B7C7B776E7676775D67716E6B
:103B30006462666470706E6A6F7478745B646A6BDA
:103B400053585E5D54565555585654526A696159DA
:103B50007C7D8275797F82846E757A738581817AA6
:103B60008F908B898387868888837D7C98948D89C4
:103B70009FA09B98A0A2A7A1B2AEAEA9B2B9B7B5BB
:103B8000A5B1BBB1999AA0A8929A95938D9497905C
:103B90008A8C8C8C8F9187838F929A917F828B9461
:103BA0007B77787D8385807A777B7E81595E606BB9
:103BB0005F5B5553716C6663707474726A6673757B
:103BC0007070727476787D77797C7D7C7A7778777F
:103BD000787C7977787A7B787A797877918A847A21
:103BE000A09B9D9D98989EA4928E8E959499989254
:103BF0008B8E9398787A7F8387827C788C8D8A8B62
:103C0000797B85896D65717D716B6A707377797465
:103C10006E787D7763666C6E5558565B5151505186
:103C20005B53504F746863607972737A67656A7525
:103C3000686566677D7979757B7C80817171737A3F
:103C4000827D787691908F8898919294A2948E97A5
:103C5000AEA9A4A3B2ADB5B6A7AEAFB49F9FA1A5C0
:103C60009E9D9E9E9FA3A2A1999A9C9BA59A999C7A
:103C70009B9A98A286848F968B8684898F8E918F4B
:103C80006F77828B565A5F686764625B7777756D72
:103C9000737172786E6A6268746D6B697B74787A1E
:103CA000797A787E6F7579756C6D72726D6E6B6BEB
:103CB00074706E688D857B7994958A8689878B8EE2
:103CC0008D83838B87898A8E6A707A806A63666B3C
:103CD00086817B73898D918B77807D8574766B6708
:103CE000837F77718A8883857B7C7C816A696E7526
:103CF000615F646A62646565736D6A6781897C76F9
:103D0000818A8A7E807B7B7F8D87787892968E8968
:103D10008382898E7F79787F95908A829D9C9D9CF5
:103D20008D999896989B998CAFABA3A0A8AEA8A5A7
:103D300097979DA38F8D8A92918E8D8B9592959753
:103D40008C908D928692978B8388908C80807E81D8
:103D50008487847F7C8188875E6368745955525557
:103D6000716B655D717572735C63717160606464C1
:103D7000696A6A637173716F6C6D706E6E6E6C6C74
:103D800073746F6C7273737173716D6F7F7C807BF2
:103D90008B8D8E8A8B91948C9392938F848B8C9144
:103DA0006F747878837A74709B988F8B8C919898C5
:103DB000787281907E7D7B7D8D8A8C858A8A9191B7
:103DC000777E7C866E7376717472726F73747174A1
:103DD000827A79768C81838A8084878C807E8285C2
:103DE000868487857D8483867274787781787773FB
:103DF0008E8E8783918D8D8F89817E8B9B96908B04
:103E0000A59EA2A492979CA4777D8188827C7E7ACD
:103E1000938D8B8A8C9191948C8786898B878184F2
:103E20008D88888B8B8B8E8F86899191707A828515
:103E300063666A6D726F6B65817E7A7483867B7E42
:103E4000737670717B7671747B7C7C7A687275771F
:103E500063626366716B67666F7270706565696CCB
:103E6000686C66637875736789807E7F817F8286E0
:103E700071777C8065626D766A67646486837C7125
:103E80009394918E7E90928D807F7E78979284829B
:103E90009C9B9791878A9098807A7A829086848476
:103EA0008D8C939582888D8E8C90978B9C9F9E97FE
:103EB0009C9E9C9C96969594908F8E958886888DD6
:103EC000848285878687898982888B89797F8E8994
:103ED000847D807F92938B898A8992956771787FA0
:103EE000646265688078726E7C80807E6C6F7675A7
:103EF0006E656C737A767475797E807A7D7F827F49
:103F00007275777B666A6A696E6B67657675706FC6
:103F1000807678787D767A897976797E86838581D0
:103F20008683838972777379817A7572938F8D888E
:103F300080878B917B757D7F877D7C839092908B32
:103F400090929998868A8B8F737B7B7C6D6C6F6F58
:103F50007A72686B7E7D7978897C7F837A797582C5
:103F6000777578768A7F87857E868489646F737299
:103F7000746D6C6888867D79767C808183777478AF
:103F80008F897D7D93909492908D919A808A888676
:103F9000878489828C8C868A898D89848F8A8C8893
:103FA00098958B9193938E8E9C9292959D9F9C9FBA
:103FB000868E95977779808484817C779496928990
:103FC00086878E928483788188867F798B87878B9A
:103FD000838385877C818184707579796D70736E38
:103FE0006E726D6A74726C6B797E736F7A767674AA
:103FF0007D756A747877727468666A75605C5E66EF
:10400000736E6C687A80827D6972787966706B6392
:104010007C7D75688885827D827F7E8879757A7ED1
:104020007673787B747476797C7C7E798485817EE6
:10403000899290848C8E8B88938C87889B929093A6
:10404000888B8C967A787D83878185808E8F8F8F01
:104050008089898C7E838A8094918D899299908EB3
:1040600083878C8A877F7C84868482848082878809
:104070007B7C7E82797C7D7A817B8582868A87873C
:10408000848B8D82898989867B7E79837271716E3A
:10409000847C767487888589787681827B74778240
:1040A000808582807F84847E7D7F7D7C7C80797426
:1040B0007977757772707076726D6F71857A787AAC
:1040C000858582837E828987848184897D858584B4
:1040D000727B7D797F7A75738E90837C908F918FC0
:1040E0008589828A8A84817B968D9093888B949629
:1040F00077828B8C8082857D858786817D83817D9B
:104100007977757681807F7883858785797D7C7ED8
:104110007B7476777775767A65697073666466699D
:104120006A706C65716F706C736F75797278787284
:104130007B7C857B747D787A7174706C847E7B74F3
:104140008A8A858484888986908484879692878EDB
:1041500098969A989A979BA1989B989894969A97D4
:104160008D8F8C918F8B8989949293928F9798954C
:104170008B8E8F8C8D8C8B89878987897B767A83D0
:10418000727171757F7A7D7874797E8461636B6CEE
:104190006D6462647679726F6E74787566686A6F42
:1041A00062676461666665606B6766686D686468AF
:1041B0007879756F85827F7D817E7C7D8782818223
:1041C00084898A8982838487888888819A97928C57
:1041D0009A95969793949399979A9994A2A1A8A245
:1041E00098A49FA1888E908A978E8C8D9294919599
:1041F0007E848B8E7C7F7F7B8587847F868785838B
:104200007B7A7E8172717178656C6E705F626666B2
:104210005E5D6162706D686375746E6F6D6C7173F5
:104220007572747271727376747573737B7A797246
:104230008587857E82868584858487868E908B851A
:104240009D9C9994939698988C8C8D918F8D8B8D45
:104250008C8B8F908483878D888A888196969690A0
:104260008C928F92777B8382807A787A7F807B7F33
:1042700076788180716F747674796D6F6F71716EFD
:104280006E6D717171706C6F6F6F75736C6A6F7337
:10429000686969697574736E7977767777747677FC
:1042A000847C807F878A8D8D8289928D81838584AD
:1042B0008F8D837E95928D8B8D888B909188858D47
:1042C0009B9C9A9592969E9E82898D9481838480F0
:1042D0008581808384868483817F858682838788A5
:1042E0007E868885777A7C7D797774747F7E7A780C
:1042F0007C7D7B7B76747678787978797B7B7F7B25
:104300007D83827E8884817E82898384787B817E9E
:104310007D767679858480798989898A86898E8A6D
:104320008A8E8B888C8E918C838582867373757749
:104330007F77757483828382707A7F816D6B7271EF
:104340007F8279737E86847A6C7174796A68666616
:10435000706F6B69717370706D6B6A6D7976747064
:104360008583817E818789857E7F7B7C7F7D7F8041
:1043700081817E7F82828282878A87849393948BD5
:104380009B9E9C959E9D9D9798989A9D8C8E9397A9
:1043900089898E8E91918F8D8C9392918B8E8F8E39
:1043A0008D8F8C8988908B88808085867476797DC6
:1043B0007674757374767979656E7070636366650B
:1043C00076756E6A797D7C796A70767468666669DE
:1043D0006E6B6B697170706E6B7170717C787C76CE
:1043E000878E8781838B8D8587837C828987848272
:1043F000968E8B8A949495988E939691948D969799
:10440000949C9A9897969C94979796978C8E8E9159
:1044100085858789838282837A7D848376747C8292
:104420006D75767674757674696D6A7155585D63CD
:10443000645A5858696C696763676C676964686D2A
:104440007579736E7D7F837B7677797D6E6A6C6F0D
:10445000847C76738A8D8D8687828B8C918E8D8CF1
:1044600099A0A298989E9E9A8C8F8A8F8D89878812
:1044700097928E908E92979B83848C8D8884898C62
:104480008A91928E8E93938F8A8F898678787B819A
:10449000767372757B77757675747C7A80787E809A
:1044A0007E8286848587877F7B8282846B6F73742C
:1044B00078736D6E8483827D7E7B828377767C8445
:1044C0008183817D8D8F8D88848C888778767C7DB3
:1044D000807B74787D7F807E7073797E7875767945
:1044E0008286887F858B8B87747B7A7A726F6D6EFC
:1044F00078746F717274777966686C716C6C716EB8
:104500007A7B7C75767E7A7774767971746F717345
:104510007E7B757487838381868A87888C8B908A5B
:1045200098979192989F979296959C998F8F94982F
:1045300097979690A6A6A49D979D9CA28A8C9390EF
:1045400095918D8C9F9899959095979A7879848A72
:104550007B78797A7B7F7F7D7074777B6E72736CEA
:1045600081797674757875786165686D5E5F5F6175
:1045700062606061696E6A676A68676971726865BE
:104580007977736F7B74767B7E7C7D7C7F80857F83
:104590008682838286888382898888879994888A9C
:1045A0009D9A93929894949E9297929984888F90D2
:1045B000817E81838A8C868285878A88817B7982C5
:1045C000817B7579817C8289737B7E84636971715B
:1045D000646266666D6E67656B6E6F6B6D60636A55
:1045E000726C686D78737B797279797B7575777287
:1045F0007C78747482807D78827E7E81867D8282E2
:104600008D86898D959898929EA49A959E9F9F9845
:104610009492939A8E8E8B8D999492909A98969765
:1046200098969EA294989EA1939CA0988F989695F8
:104630008486888C89888284898B8A89777E828522
:10464000757375777D7D7C787B807C7B70747778E3
:104650006E6C6C6D75716E716D6F727367696C6F76
:104660006F6F726B80817A76807E7D797C76737BCA
:1046700073757475827C7B7880818083777A7D7F87
:104680007F7E7E788985818183837B7E827D7E8229
:1046900075747880727173777678787675747979B5
:1046A000707670717A73706F75747075706E7475E2
:1046B0006A7075736C6B6A667873726C79777679E9
:1046C0007B786E75847F7F7B8E8A8C8F86889292B2
:1046D00084868B8B8B8A8682928E8A8A8F8F909229
:1046E0009F9591959E9D9E9D9698A1A1959493933B
:1046F00094958F8D928C8D918D8D8D95878D8E8ECD
:104700008D878A8C8B8C8A8A89898D8D8A8F8E87FA
:1047100087898F8A787A7E86757777757D7E7E7AAF
:104720007F77797A7E79798282828481838886868E
:10473000757E8280767173767C7B76757F7F8280D2
:1047400076777C7F7D7B7E7E81898581888C8A835C
:104750007D817E81747474787872717473777978DE
:10476000696D6F6F6D6E746F7575717173736E6D4A
:104770006D6C6A6E6462636A615E606368656664DC
:10478000606566696567696075746E68797D736D6B
:10479000777778756F6E6D76726E6C6B877F7D7ACA
:1047A0008C8E8B89878D8E8699958F88A2A19997FB
:1047B000A39F9FA29895989FA1A09B98ABABAAA3FB
:1047C000A2A1A7AB9EA19699AEA9A49DAEAEACB195
:1047D000A5A5B0AF939AA0A38E8F90909193908D42
:1047E00088898B8D87887B83898883827F7B818B77
:1047F0006F72747A686A70726264676A6668676208
:10480000686B6A686A665F656B6661626F6A6B6C2B
:104810006F6C6F74646B696F6263636178716A69EE
:104820007178767775696E707A756D737F7E817D2C
:1048300084848A8B757C838477787A778786817A7B
:10484000808585837971787C837F7C7C87878D8761
:1048500084858688807F7F7F7577797E7878787485
:104860008381807E7A7C7F7D7C7A80837D817F7D61
:104870008183867F848282867E8382848685807E11
:1048800093908A89858C8C8D8B888E909597919149
:104890009A9D9E969694999C7881878E8782797747
:1048A00099978F88878B8C9488868987938F8F9030
:1048B000919294918484899172767E7F85827B75B2
:1048C0008E908C877B7E7F877F808078908B88839B
:1048D00091928C8A8584898B75777C7F7878736FC9
:1048E0007B7B7A79757573777079756D76726E6F7B
:1048F0007B7370727170757B585C646D5D5C5B5826
:104900006E6B67646A67676B6A6F6765776F696804
:10491000848076787D7F84836F74787D75726E6B0A
:104920008D8A847B8A8C8E8F8081798290877E7A33
:10493000948D8E9484868A947E7F84857F7C7C7D12
:104940007E7F817F75797D7D807770768C867C799E
:10495000979094959191929B848E928D8382858479
:1049600094938A86939697949B9291959C9B959607
:1049700097939E9F959CA19A959A9F9C8B908D8DC5
:104980009896938A9194949A7E7C84877D797A8094
:104990008383867F83878584767C80836567667062
:1049A00072726E6A6F7377775F626868636062665F
:1049B0006A6A6D6568706D6B5D5F6463605D595BAD
:1049C0006E6C6763686B7072656868677374706E2D
:1049D000767E7A747A7B7A7575777479736C6F7179
:1049E000827E7D798A8D8D868E938F8E8F94928A2A
:1049F0009995928FA69E95979E9FA1A0908E98A024
:104A00008F908C8D9B9B9A939499989A888D8D8783
:104A100096938C87979695957680889263666E724A
:104A2000716E68647E7A77727A7B7D7F757B747233
:104A3000817C79758682808477807D7F73737B7AB1
:104A40007D7874748083857E7D7A7F828484777696
:104A5000938E898297898E98878E8F8F7C85928F8F
:104A6000797F7E7E83847E79848687868581747E45
:104A7000878483818F868A8D84888B92737F8283DB
:104A80007676756F7D7C78767678787A746C6F75CB
:104A900077716F73847D81807E838583636973778B
:104AA000716B66657F827E796E777D7E6B626469ED
:104AB00076706B6D7B767A797E81838280837F7D51
:104AC0007F807A768C8581828688898B88808887AA
:104AD00094918E8D98989D9A94979D9A8A8F929092
:104AE000888987878988838590908F8A83868C912F
:104AF000787981887B7C79798285807C787D7E7DE0
:104B000075767577807D7B748281828274787A7DF8
:104B10007F7A7A7A8588868587888A857C83858668
:104B200073757877837F75738A88868374797D87B8
:104B30007F7D817A898B86857A7C808177716F779A
:104B4000676B6E756A696D6A75777572707672706B
:104B5000767671697F7A79767A777578716F7B7AF4
:104B6000696A7077706E6F68827E7C787D7D7D7FEC
:104B700081857D768B8481819A8F8D8A989A979E84
:104B80007E85929487807D80909391898E8C90927F
:104B900090928888A39C9994A7A2A1A59BA1A5A85F
:104BA0009495999D96979292A4A4A2999A9B9FA35B
:104BB00096968C9394938F918F8E939483868E90F8
:104BC00075838984797B7877707471726868686C92
:104BD00069605D686865686764676C6B686C6F6F57
:104BE0005A686B685C5A60586E6A5D5B696969688F
:104BF0006B5F646B6E6D696B75757B75777A7B77B0
:104C0000777B7A75726E6B71827C7673848388870A
:104C100073727A827C7B797684888A8480868485A4
:104C2000807D7C7E7E7B787C8884828080878B8B75
:104C3000777C7B7C817F817D87898887898B868152
:104C40008B8788897D7D7D82857E7E7D8B89878827
:104C5000868A88899294968B8C9495948F928D896C
:104C6000928C8E92817E808E898181809898989393
:104C700094989A989295938BA09B958FA19E9A9DBC
:104C80009C99A2A48F94979B8F8E8F8E8E8E8F92DD
:104C900085878B8E81837F7E8D89838183858388C1
:104CA0006D7078806568686C666563626666666864
:104CB000656465666C685F666F6C6B6A726C707455
:104CC0006F706E6C716E70716968676D7A73736BFB
:104CD0007B7C808275717377817C7776858685840D
:104CE000838485837D80817F706D73767D76757317
:104CF000777B828168656E7277726F6D8082837D4B
:104D00007D8083856E7577796B696A6E7976716D52
:104D100075787E7E727372738382807D83898A86C2
:104D20008C8A8787878D87878B81848895958E8EDF
:104D300090929C9987898C929195968A999996954B
:104D40009C9A9491A3A09A9D97979B9F9D979597C6
:104D5000A0A3A5A19A9CA1A29EA2A199A6A7A3A047
:104D6000A2A2A1A28B8F939C80858987878284834E
:104D70008286858375777C7E74756F7072727071B0
:104D80006B6C6C715C6065685C5E5D5E64655F58F1
:104D9000686465655C5F60666B67615F75736E6BA9
:104DA000727073767576747576797A7A74757373B2
:104DB000807B7B77797C7C808379797A8986848310
:104DC00080828A877E8382817C82827974706B7212
:104DD00077746E6F79767C7D726E747A737073728D
:104DE00075737978727775706E6B6B6E716D6B6BB6
:104DF00078797B79747C7E7E7C787A7288858082F3
:104E00008C908C8A959595958D938D8D8C83888CBF
:104E100091908C908A8B8F8F9591918EA5A7A49D50
:104E2000A6A9A9ABA6A7A7A4A9A6A6A7A0A09B9F31
:104E3000A09B9E9EA1A1A3A3949FA0A08F939B98AB
:104E400099989393919595988584898C7A797C83A8
:104E500073797A786F6F72736069686C5D5F656093
:104E6000676A64606A696867606061655E5B5C5E12
:104E7000696660606867686861636468706E6B60CB
:104E80007D7B79727374737874756F6B70717375E1
:104E900072706C707A79787478777A7E7B7C7872AD
:104EA0008785807D7F7C7D7D80787A7E838180850B
:104EB0007B7D7F7D838181807C807F8080827E7707
:104EC0008C8880829189878B96929093888C8F951D
:104ED0008A898A89969392909094979596948B8ECE
:104EE00099999695969193988D908C9285898C8AB4
:104EF0008A8484869393928D8C9092958E8B8387EF
:104F00009493918D8D8E929B888F8E8C8D8F8F89AF
:104F1000858582847D7B80827B7C7D807C7A7C7CA5
:104F200078787B7D73757679737578766B6D706F35
:104F3000615F646762605F5F646563616760676645
:104F4000686667696C6A716C6B7477746C74746E84
:104F5000686A69667B776E6986837E7D75727C82FE
:104F60007F7B787A848C8C84888586848A85848308
:104F7000828384878986858588898A8B7A7B8286E5
:104F800087828082868E8D8A8688918A80848587B2
:104F90007476797A7E7A767582837F7D828180804D
:104FA0008E8A8A8D878E959192938E8E9398979004
:104FB0008683888F908B82849495989484898D932E
:104FC0008A888A889192928D95998F8E96959794DA
:104FD000837F83948C898380909095957D83878C43
:104FE000848285808B8D8D898B908D888081878A46
:104FF0006E70737A7974716F76797A7A696B6A6C8C
:10500000736F7069747271736B726E6969666E6EBC
:105010005E5F5F696A67645F6E706E71686D696A12
:1050200072716F6A7775747478746E757C7A807E2D
:1050300071787E817677766E817E7A777C7A777AE0
:105040007D7B7D788784818092928E8B8B939093E9
:105050007D7B8284877C767C898888888383888B23
:1050600081858380898B87808D8E898784838A8CD4
:105070007B797F8387837F799695948F8B8A8C91B8
:105080008E8F8B859996938E959395998E8F8E9210
:1050900085898D8F7F7D7A808585827E83828285DA
:1050A0007F827C7D87868381888785888C90918D9F
:1050B0008083868A7A7674778781807E82838386EE
:1050C00087857F81828280818581848583868688A9
:1050D0006D757D7E7167696A7A7D7774696E7576A4
:1050E0006968636B6D6E696572716E6E787C7B76D4
:1050F0006C726F756C6A6763847D79767279797E7C
:105100007B7472758B827E7B95938D8F8C8C929243
:105110007F82878F7F807F7B90918F88898D8B8D19
:10512000928C89898E8E8D908A898D8F888F918EB1
:105130007D7E8488737371767B7879747578797CD9
:10514000746F7475727170717B7373757F80807DFD
:1051500079818484767775748D8880748A8A8A8C44
:10516000817D82848C83838396959493939594997F
:1051700083898C8888828586919388848C8C93918E
:105180008B838488918A8D8F8F8F9497868E8D8F55
:10519000818285837C7C757D8986827D7A7D81880C
:1051A0007472767878787A7A7273767676716E76AB
:1051B00068686F7155545C66605E58585B636760E1
:1051C0005E585A59666360616D6C6D6D757A737166
:1051D00075787B766C6A676D7D72706E8181838273
:1051E000858388828F898A8B95948F8F9BA09993D2
:1051F0009B979A9A908E8B92A29E9B949DA3A8A611
:10520000979799999F9D9C9B999D9F9F9B9B9E9CE7
:105210009498979989898C8E928D888A898D8F8FA1
:10522000808086868D8A88858F90938E8C8D8D8BDD
:10523000858A8B8C7B797F847C7777787D7E7E7D79
:1052400077777C7B7174777873727370797A7676FE
:105250007172727662605E676E6664636F706F72A1
:1052600061646A6B656465666B6F6E677473737196
:10527000717475746763686E6F6B676A737779743E
:10528000696F71727474706D7E7C777477797A7CD3
:105290007576747471717575777874748784857E8A
:1052A000848885878D8C888397939694949892951B
:1052B0009295968F958D90929B9A9391A5A4A49D7B
:1052C00099A09DA29E9CA29BA1A4A1A09B9B9E9DF8
:1052D0009E9D9E9F8A9095978D888A8791908C8DB0
:1052E0007F85898B7B7C7D7F7E82817D7B7F7E81BC
:1052F0007373777D64696D70686568677373726BCB
:10530000717373707573726F7C7A787579807D7A3A
:1053100075787B7973716F72787472727776777B38
:1053200071727578797A79767E827E7D7E7C7C7BDF
:105330007A7A7E8077797C7D77777D797C7D7E7CBB
:105340007C7D7B7C8081827C858485808788888445
:105350008384847E7A7E7F7E7976787B7B7876778D
:105360007D7D817F76787D7D797878757F7D7F7A88
:10537000717A787B7571707377777278817F807FAF
:105380007E8382858184837D888380808A898889E1
:105390008C888886949292908D8D8B8B958F8F8F31
:1053A00096979697959596939E9D9B9A949C999D7A
:1053B000939294938E9493937F81898C83847D7C44
:1053C00087888A848587838381818080817B7B81B4
:1053D0007675767D75767F806F757678777B7A7156
:1053E00081807D7A7F7E7879847E7E7F7B7B7B83E4
:1053F000797B807A7578818270757474817F7A7117
:10540000828480807F7B787983807E808386878892
:105410007C7F817F7E8283827B7F7D7B7D7B7977B2
:1054200083807B7B7F7C797E7C7B7C8075757B7DBC
:105430006F7473726D6C72706467696E6566655EB9
:105440006D6B6868696A64656865666969696969D8
:10545000746F716F767B7E78737179787B7D7573ED
:105460008482817C89847F858F8B878596939596AE
:105470009998989897999997929397989C999594B9
:10548000A4A5A49FA29EA0A49E9E9B9E999E9D9F24
:105490009494969A90918F918B898D8F858387872D
:1054A0008482818187858586808386877C7F7F82D1
:1054B0007E81787A817F807C777979807774767342
:1054C0007F7E7E7D797D7E7B7A787C7E7477757732
:1054D000767072717B7A7B7A6D7271756E6B6C6AA5
:1054E0007A79747577787B797D7B797C7D817D7D18
:1054F0007D7A797A7A78797D75767A7C7A77787818
:105500007A7F807E7B7A7B78797F7A7876757776FA
:1055100077757371777978776D6B6E74696B696B7A
:105520006F6D6E6E767371707E7F7B787D7E81820B
:105530007F7E827F86868684848588868883808134
:10554000928F8B899F9A9995979E9EA09A969897ED
:105550009D9E989B9D9C9EA19C9A9CA194999A9A91
:1055600097989B999D9D9997939695978C8C8B92E4
:10557000858B88877E8185847775737A7674777555
:105580007374787A7A7877747978777677737475B4
:10559000767374796F6E74776A6F74746C70706DF3
:1055A0006C71716C75746E6B7A77727376737377D6
:1055B00073707278717475747273767574757170B6
:1055C0007A7A787684837F7E8787838381808085DB
:1055D0008A8587888B8C8E888485898B7E7E7E7E6B
:1055E0007F7E8180828282828382827F807E8184AC
:1055F000797C7A7C707476736F6C6A6E716F6B6B8A
:10560000767373737D7B787A8380807C83808186D8
:105610007D7E8281807D7E847F81817D8F8C8A8763
:10562000888C8D8D8F8D8888A09C94939A9B9B9E4F
:105630009998999C93959395918D918D939293932D
:1056400088899092888A85868F8D8C878182828ACC
:105650007C7981807A7B7C81727B7B7779777775A7
:10566000727472767B79737282817E80807F7C8097
:105670007F7A828275787B7F6D6F74717C797973A4
:10568000797B7B797C7D7B788988827D8485828328
:10569000827F82837A7F7F847C787C7B8383817F17
:1056A0007B7F8383817F7B788F8E88859292919098
:1056B0008385868D7A7B7D807873767A797A7C791A
:1056C0007473797972777270797879737772717788
:1056D0006669686A65636768696967676D6F706B3B
:1056E0006F6D6E6F70726F6B7E7C787583817D7E5F
:1056F00080838284828686888387868293908B8348
:105700009C9693919C9B9997A3A09D9CA8A6A5A3CA
:10571000A3A1A3AB979D9FA0918F929692909091F9
:10572000858990927E807F828A89847F8C8F8D8B01
:105730008280838B74767E7D706F6F7677787A74D3
:1057400072747A7C7275726E857F7975817D7C82C8
:10575000716D7379706F75756D7474727572736D28
:10576000747475776F71706F807C777480827E80BF
:10577000787C7B7B77787D7A727574757E7B7873A5
:105780008483848485878684898B85848A8A8588B6
:10579000818586867E7F8385777B777C7F7B7A7821
:1057A000777C8185727578787A7C757086817E7E4B
:1057B0007A81818074768180717773727F7D786E53
:1057C0007B7A777C777875778A817C7F898C888AE9
:1057D00086868D8984868887888888838E8E8A8845
:1057E00087898E8F8D8E8B8D9997949096969597AD
:1057F00091939595818A8B8C7E7D7B80807C797955
:10580000807D7E81807F838685838682898A898761
:1058100086888783808185847A7A7B81807E7B7984
:105820007F80828378787E7F837D7C7B8B8B87846F
:1058300087898E8D7C828189797E7F7B827C777A55
:105840007E7E7D7D7B747C81817F7D7E81828B826B
:10585000828584808282837F817F7C818285817F33
:105860007D7D8284757776797C7A79747C7A7E7F87
:105870007579787A71727675676F6D716566646433
:10588000696965656B676A6873716C6E7171727155
:105890007373747772767B776F7374767574706BCD
:1058A0007E7A78787D7F7E7E878481819293918ACB
:1058B00096969898939896959091949592928D8DAE
:1058C0009A98999592949598948F9393919494948F
:1058D0008E8E918F8B8A868C888A89898886898A20
:1058E000808385888081868483858584818886837A
:1058F00086858183807E81817875777F73707378E8
:10590000777676757B7A7C7B7F7E7C7D7C797779F8
:105910007E7D7C7E787A7B7A737675797070717112
:1059200076716F72737577767976757683817E7905
:105930008D8D8A8587898A8B808281837D7E7D7E1D
:105940007F7F7E7E7E7F7F7F7F807D7F848380825E
:10595000828384887F7D7F807F7F8280767B7D7C51
:105960007C7A7A757F7F7D7B807E7D7C8683838158
:105970008285848584828483868782857E7E7F84F7
:1059800085807E8088898B89888B8E8B8F8A8A8997
:105990008C908D8E8E8D8D8B8A8C8D907B80828865
:1059A0007B7A7F7C787E7D7C74747674807D77765C
:1059B0008184827F7D8182837E7E7D7E797A777C01
:1059C000797678777674777A767879767C7B7C7757
:1059D0007B7F7D7A83817C7781817D807B7A8081EA
:1059E0007A7B7C81777C7C797E7C7A7880817C7CF8
:1059F0007E7A7B7E7E7C7B7C7C7B7F7E74797A7BEF
:105A00007776756F847E7A7A8385858387858586A8
:105A1000898A8D888C868787858988857E82878715
:105A20007C7D7B7C82807E7C7F807E83817F807F8B
:105A3000858884857F83838384807E807E81838341
:105A40007C7B7A7C7F7E7C7C7B797A7D807E7D7B93
:105A50008988888687868488938E8C889293959689
:105A60008A898B8F908F8D8B8E8F908F918F8E8E5A
:105A700090929291868A8C9085898C8A7E85858782
:105A8000777A787B7C7978767D7D7C7E78777B7D74
:105A9000787B7A7A797A7C777C7B797C6D72737487
:105AA0006D6B6A6B706E6B6B6F6D6D6D7C75767404
:105AB00081807E807D80868085827E837E7F7F7EE2
:105AC00079777D7F7A7B7977787679797E80807C2B
:105AD0007C7D7E7D847A787D8A8C8986888788879C
